:100000000C9435000C945D000C945D000C945D0024
:100010000C945D000C945D000C945D000C945D00EC
:100020000C945D000C945D000C945D000C945D00DC
:100030000C945D000C945D000C945D000C945D00CC
:100040000C94E1010C945D000C9451020C942B0271
:100050000C945D000C945D000C945D000C945D00AC
:100060000C945D000C945D00810311241FBECFEF42
:10007000D8E0DEBFCDBF21E0A8E3B1E001C01D9212
:10008000A23EB207E1F711E0A0E0B1E0EEEBFBE049
:1000900002C005900D92A833B107D9F710E0C5E36F
:1000A000D0E004C02197FE010E94E503C433D107CC
:1000B000C9F70E9483020C94DD050C940000AF92F6
:1000C000BF92CF92DF92EF92FF920F931F93CF9345
:1000D000DF936C017B018B01040F151FEB015E01A7
:1000E000AE18BF08C017D10759F06991D601ED913C
:1000F000FC910190F081E02DC6010995892B79F7DB
:10010000C501DF91CF911F910F91FF90EF90DF908C
:10011000CF90BF90AF900895FC01538D448D252F53
:1001200030E0842F90E0821B930B541710F0CF9691
:10013000089501970895FC01918D828D981761F0C3
:10014000A28DAE0FBF2FB11D5D968C91928D9F5FDA
:100150009F73928F90E008958FEF9FEF08952FB7D0
:10016000F89480913D0190913E01A0913F01B091A2
:1001700040012FBF8093490190934A01A0934B0106
:10018000B0934C0181E491E00E949B0097FF26C050
:100190002FB7F89480913D0190913E01A0913F01CD
:1001A000B09140012FBF4091490150914A016091A7
:1001B0004B0170914C01841B950BA60BB70B409122
:1001C00045015091460160914701709148018417A3
:1001D0009507A607B707B0F28FEF9FEF0895FC01D0
:1001E000918D828D981731F0828DE80FF11D858DEC
:1001F00090E008958FEF9FEF0895FC01918D228D7F
:10020000892F90E0805C9F4F821B91098F73992703
:10021000089581E491E00E94FD0021E0892B09F41A
:1002200020E0822F089580E090E0892B29F00E9441
:10023000090181110C9400000895FC01A48DA80F00
:10024000B92FB11DA35ABF4F2C91848D90E0019618
:100250008F739927848FA689B7892C93A089B18938
:100260008C91837080648C93938D848D981306C0D9
:100270000288F389E02D80818F7D80830895EF923D
:10028000FF920F931F93CF93DF93EC0181E0888F50
:100290009B8D8C8D98131AC0E889F989808185FF20
:1002A00015C09FB7F894EE89FF896083E889F989C2
:1002B00080818370806480839FBF81E090E0DF91C4
:1002C000CF911F910F91FF90EF900895F62E0B8D17
:1002D00010E00F5F1F4F0F731127E02E8C8D8E11D2
:1002E0000CC00FB607FCFACFE889F989808185FF39
:1002F000F5CFCE010E941D01F1CFEB8DEC0FFD2F4C
:10030000F11DE35AFF4FF0829FB7F8940B8FEA89F3
:10031000FB8980818062CFCFCF93DF93EC01888D02
:100320008823B9F0AA89BB89E889F9898C9185FD70
:1003300003C0808186FD0DC00FB607FCF7CF8C91FE
:1003400085FFF2CF808185FFEDCFCE010E941D0198
:10035000E9CFDF91CF910895FC0101900020E9F7EA
:100360003197AF01481B590BBC0181E491E00C941B
:100370005F000F931F93CF93DF93EC0188819981E6
:10038000009759F02A813B812617370730F081E02A
:10039000DF91CF911F910F9108958B016F5F7F4F78
:1003A0000E941005009759F0998388831B830A8364
:1003B0002C813D81232B59F7FC011082E8CF80E08E
:1003C000E7CF1F920F920FB60F9211242F933F93F6
:1003D0008F939F93AF93BF9380913D0190913E0186
:1003E000A0913F01B091400130913C0123E0230FE7
:1003F0002D3758F50196A11DB11D20933C01809326
:100400003D0190933E01A0933F01B0934001809144
:10041000380190913901A0913A01B0913B010196C8
:10042000A11DB11D8093380190933901A0933A0129
:10043000B0933B01BF91AF919F918F913F912F91CD
:100440000F900FBE0F901F90189526E8230F02966D
:10045000A11DB11DD2CF1F920F920FB60F92112482
:100460002F933F934F935F936F937F938F939F93BC
:10047000AF93BF93EF93FF9381E491E00E941D013E
:10048000FF91EF91BF91AF919F918F917F916F916C
:100490005F914F913F912F910F900FBE0F901F9042
:1004A00018951F920F920FB60F9211242F938F93CE
:1004B0009F93EF93FF93E0915101F091520180815E
:1004C000E0915701F091580182FD1BC0908180910D
:1004D0005A018F5F8F7320915B01821741F0E09189
:1004E0005A01F0E0EF5BFE4F958F80935A01FF9128
:1004F000EF919F918F912F910F900FBE0F901F90B2
:1005000018958081F4CFCF93DF93CDB7DEB72897CE
:100510000FB6F894DEBF0FBECDBF789484B582606D
:1005200084BD84B5816084BD85B5826085BD85B597
:10053000816085BD80916E00816080936E00109215
:100540008100809181008260809381008091810090
:100550008160809381008091800081608093800021
:100560008091B10084608093B1008091B00081607F
:100570008093B00080917A00846080937A008091AB
:100580007A00826080937A0080917A008160809303
:100590007A0080917A00806880937A001092C1007E
:1005A000E0915101F091520182E08083E0914D0190
:1005B000F0914E011082E0914F01F091500180E1E5
:1005C000808310925901E0915501F091560186E027
:1005D0008083E0915301F091540180818061808398
:1005E000E0915301F0915401808188608083E09113
:1005F0005301F0915401808180688083E091530120
:10060000F091540180818F7D808388E191E00E9488
:10061000AC0189E291E00E94AC0180E0E82E80E02C
:10062000F82E81E491E00E94FD00181619060CF0E6
:100630005CC01A8219821C821B821E821D8270E09D
:1006400060E0CE0101960E94B90129813A818111B1
:100650002EC02115310519F0C9010E9487041A82A4
:1006600019821E821D821C821B820E94AF0097FD90
:1006700026C08A30910519F18F8318860D811E815D
:100680000F5F1F4FB801CE0101960E94B901882368
:1006900061F329813A818D819E81BE01695F7F4F1F
:1006A000820F931F0E94D6051E830D83DECF1E820C
:1006B0001D826BE271E0C9010E94D605D6CF8CE2A3
:1006C00091E00E94AC014D815E8169817A8181E473
:1006D00091E00E945F0089E291E00E94AC01898173
:1006E0009A81009711F00E948704E114F10409F443
:1006F00098CF0E940901882309F493CF0E9400003B
:1007000090CFE1E4F1E01382128288EE93E0A0E062
:10071000B0E084839583A683B7838AE091E09183D8
:10072000808385EC90E09587848784EC90E09787C0
:10073000868780EC90E0918B808B81EC90E0938BAE
:10074000828B82EC90E0958B848B86EC90E0978B8B
:10075000868B118E128E138E148E08952F923F92D7
:100760004F925F926F927F928F929F92AF92BF92C1
:10077000CF92DF92EF92FF920F931F93CF93DF936D
:10078000CDB7DEB7CA1BDB0B0FB6F894DEBF0FBECA
:10079000CDBF09942A88398848885F846E847D8417
:1007A0008C849B84AA84B984C884DF80EE80FD8019
:1007B0000C811B81AA81B981CE0FD11D0FB6F8948F
:1007C000DEBF0FBECDBFED010895EE0FFF1F0590F8
:1007D000F491E02D09940F931F93CF93DF93823010
:1007E000910510F482E090E0E091E001F091E101E8
:1007F00030E020E0B0E0A0E0309799F42115310519
:1008000009F44AC0281B390B24303105D8F58A81F8
:100810009B816115710589F1FB0193838283FE0140
:1008200011C0408151810281138148175907E0F0BE
:100830004817590799F4109761F012960C93129784
:1008400013961C933296CF01DF91CF911F910F9198
:1008500008950093E0011093E101F4CF21153105D3
:1008600051F04217530738F0A901DB019A01BD018D
:10087000DF01F801C1CFEF01F9CF9093E10180933F
:10088000E001CDCFFE01E20FF31F8193919322503F
:10089000310939832883D7CF2091DE013091DF01E0
:1008A000232B41F420910201309103013093DF01A9
:1008B0002093DE01209100013091010121153105C5
:1008C00041F42DB73EB74091040150910501241B1E
:1008D000350BE091DE01F091DF01E217F307A0F4A0
:1008E0002E1B3F0B2817390778F0AC014E5F5F4F86
:1008F0002417350748F04E0F5F1F5093DF014093D8
:10090000DE01819391939FCFF0E0E0E09CCFCF9305
:10091000DF930097E9F0FC01329713821282A091D5
:10092000E001B091E101ED0130E020E01097A1F489
:1009300020813181820F931F2091DE013091DF01F0
:100940002817390709F061C0F093DF01E093DE0159
:10095000DF91CF910895EA01CE17DF07E8F54A81CC
:100960005B819E0141155105B1F7E901FB83EA83E3
:1009700049915991C40FD51FEC17FD0761F480818F
:1009800091810296840F951FE90199838883828162
:1009900093819B838A83F0E0E0E012968D919C9195
:1009A00013970097B9F52D913C911197CD010296BF
:1009B000820F931F2091DE013091DF012817390744
:1009C00039F6309751F51092E1011092E001B093A1
:1009D000DF01A093DE01BCCFD383C283408151816C
:1009E000840F951FC817D90761F44E5F5F4F888148
:1009F0009981480F591F518340838A819B8193833A
:100A000082832115310509F0B0CFF093E101E09325
:100A1000E0019ECFFD01DC01C0CF13821282D7CF4F
:100A2000B0E0A0E0E6E1F5E00C94B0038C010097A3
:100A300051F4CB010E94EB038C01C801CDB7DEB7A6
:100A4000E0E10C94CC03FC01E60FF71F9C0122505F
:100A50003109E217F30708F49DC0D901CD91DC916B
:100A60001197C617D70798F0C530D10530F3CE01DE
:100A700004978617970708F3C61BD70B2297C193D5
:100A8000D1936D937C93CF010E948704D6CF5B01F5
:100A9000AC1ABD0A4C018C0E9D1EA091E001B091D4
:100AA000E101512C412CF12CE12C109731F5809172
:100AB000DE019091DF018815990509F05CC04616AA
:100AC000570608F058C080910001909101010097ED
:100AD00041F48DB79EB74091040150910501841BEC
:100AE000950BE817F90708F055C0F093DF01E09384
:100AF000DE01F90171836083A0CF8D919C911197E4
:100B000012966C90129713967C901397A815B905BE
:100B100059F56C0142E0C40ED11CCA14DB0420F16B
:100B2000AC014A195B09DA011296159780F06282CE
:100B3000738251834083D9016D937C93E114F10456
:100B400071F0D7011396FC93EE93129776CF22960D
:100B50008C0F9D1FF90191838083F301EFCFF093F8
:100B6000E101E093E00169CF4816590608F42C0131
:100B70007D01D3019ACFCB010E94EB037C0100974A
:100B800049F0AE01B8010E94CD05C8010E9487045A
:100B9000870153CF10E000E050CFFB01DC0102C021
:100BA00001900D9241505040D8F70895FB01DC01AF
:0E0BB00001900D920020E1F70895F894FFCF18
:100BBE000000E2018000000000003F015F008C0099
:100BCE008C01FD009B00EF0041726475696E6F2011
:100BDE006973207265616479000D0A005265636560
:080BEE00697665643A200000FD
:00000001FF
